S31508000000783C05200D02000861B100081D6600084D
S3150800001011A40008970900082DE200080000000056
S3150800002000000000000000000000000001C70008F2
S315080000305F0E0008000000001DB50008B9C70008DB
S3150800004027020008270200082702000827020008DE
S3150800005027020008270200082702000827020008CE
S3150800006027020008270200082702000827020008BE
S3150800007027020008270200082702000827020008AE
S31508000080270200082702000827020008270200089E
S31508000090270200082702000827020008270200088E
S315080000A0270200082702000827020008270200087E
S315080000B025C800084DC800082702000827020008BE
S315080000C0270200082702000827020008270200085E
S315080000D027020008CDE0000839E1000889E1000898
S315080000E0610E0008270200082702000827020008F8
S315080000F0270200082702000827020008270200082E
S3150800010027020008D1B900082702000827020008BC
S3150800011049D90008A9D900082702000827020008BB
S31508000120270200082702000827020008250D0008F4
S3150800013027020008270200082702000827020008ED
S3150800014027020008270200082702000827020008DD
S3150800015027020008350D000827020008B1E100084B
S3150800016027020008270200082702000827020008BD
S3150800017027020008270200082702000800000000DE
S31508000180270200082702000801DA000827020008EB
S31508000190270200082702000827020008270200088D
S315080001A0270200082702000827020008270200087D
S315080001B0270200082702000827020008270200086D
S315080001C0270200082702000800000000270200088E
S315080001D0270200082702000827020008270200084D
S315080001E0270200082702000827020008270200083D
S315080001F02702000827020008DFF80CD000F09CFA56
S3150800020000480047B51C0208783C05200648804788
S3150800021006480047FEE7FEE7FEE7FEE7FEE7FEE7DD
S31508000220FEE7FEE7FEE7FEE7C1C70008F90100089A
S315080002302DE9F05F0546002092469B46884606460D
S31508000240814640241BE0284641464746224600F0A0
S3150800025094F853465A46C01A914110D31146184687
S31508000260224600F07BF82D1A67EB01084F46224616
S315080002700120002100F072F817EB00094E41201EFC
S31508000280A4F10104DFDC484631462A464346BDE868
S31508000290F09F40EA01039B0703D009E008C9121F33
S315080002A008C0042AFAD203E011F8013B00F8013B22
S315080002B0521EF9D27047D2B201E000F8012B491E4E
S315080002C0FBD270470022F6E710B513460A460446E5
S315080002D01946FFF7F0FF204610BD421C10F8011B17
S315080002E00029FBD1801A704710B5002200E0521C85
S315080002F0835C8C5CA34201D1002BF8D1D8B2E1B261
S31508000300401A10BD30B504460020034600E05B1CC9
S31508000310934203D2E05CCD5C401BF8D030BD034667
S3150800032011F8012B00F8012B002AF9D1184670475D
S3150800033030B50B46014600202022012409E021FAA7
S3150800034002F59D4205D303FA02F5491B04FA02F5A4
S315080003502844151EA2F10102F1DC30BD202A04DB77
S31508000360203A00FA02F1002070479140C2F12003BA
S3150800037020FA03F3194390407047202A04DB203AF9
S3150800038021FA02F00021704721FA02F3D040C2F1A7
S31508000390200291400843194670472DE9FE4F8046D2
S315080003A081EA0300C00F0C46009021F0004123F0BB
S315080003B00045B8EB0200A94105D2404621469046C1
S315080003C01C460B46024623F00040104347D0270D33
S315080003D0C7F30A00C3F30A510290401A0190402855
S315080003E06BDAC3F3130040F4801B0098924620B1E1
S315080003F00023D2EB030A63EB0B0B01985946C0F1B5
S3150800040040025046FFF7AAFF06460D465046594693
S31508000410019A00F0A3F910EB08006141002487EA6D
S31508000420115284EAE7731A4340D0009A62B3019ADC
S31508000430012A4FEA075215DC001B61EB02014FF057
S31508000440004202EA0752CDE90042001C41F580113C
S3150800045032462B4600F0A3F903B0BDE8F08F4046BC
S315080004602146F9E7001B61EB0201001C41F58013E8
S3150800047000185B412018A2F5001747EB030140EA74
S31508000480D570B6196D4111E06D084FEA360645EA92
S31508000490C0754FEA0752001B61EB0201001C41F5CB
S315080004A0801149084FEA30000019514132462B465F
S315080004B003B0BDE8F04F00F063B900980122400090
S315080004C00023D0EB020263EBE073009821464FEA63
S315080004D0E074B8EB000061EB0401E9E783F0004340
S315080004E05BE781F0004158E72DE9FE4F81EA0304F6
S315080004F004F0004421F0004100944FF0000B23F073
S31508000500004350EA01045ED052EA03045BD0C3F309
S315080005100A54C1F30A552C44A4F2F3340194A0FBFF
S315080005200254C1F3130141F48011C3F3130343F4D6
S31508000530801301FB024400FB034E840A970A44EA2F
S31508000540815447EA8357A4FB076802958D0A05FB81
S3150800055007854FEA932C04FB0C542705029D4FEAA6
S31508000560065847EA1637B5EB08056EEB070C870EF3
S31508000570920E47EA811742EA8312A7FB0201B6EBFD
S315080005800B0164EB00042B0D43EA0C335E1844EBB5
S315080005901C50DA465146E7FB0201C5F313044FEA3D
S315080005A00B3343EA14534FEA0432019C43EA060329
S315080005B0A4F10C040294009CCDE900B400F0EFF815
S315080005C003B0BDE8F08F00200146F9E72DE9F04DAC
S315080005D081EA030404F0004B21F0004514464FF06D
S315080005E0000A23F0004150EA050220D054EA01022D
S315080005F01DD0C5F30A570246C5F31303C1F313000A
S31508000600C1F30A5640F4801543F48013A7EB060895
S31508000610101BD64608F2FD3873EB050002D308F125
S31508000620010801E092185B41B8F1000F03DA0020D7
S315080006300146BDE8F08D00204FF480110646844639
S315080006400EE0171B73EB050705D3121B63EB0503B7
S3150800065006434CEA010C49084FEA300092185B4100
S3150800066050EA0107EDD152EA030012D082EA0400EB
S3150800067083EA0501084305D0101BAB4106D20122C7
S31508000680002306E000224FF0004302E06FF001026B
S3150800069053101AEB06004CEB085110EB0A0041EB1D
S315080006A00B01BDE8F04D00F06BB870B521F00043C2
S315080006B003430CD0C1F30A550024D5EB040564EBBB
S315080006C00403D617AD1AB34102DB0020014670BDFC
S315080006D0201841EB025170BDC1F30A52C1F3130150
S315080006E040F2FF3341F480119A4202DA00200146B3
S315080006F0704740F233439A42A2F2334202DC524236
S31508000700FFF73BBEFFF72ABE30B5041E71F10004A1
S3150800071004DB4FF00044404264EB0101141E73F100
S31508000720000405DB1C464FF00043524263EB04030A
S31508000730994208BF904230BD064C074D06E0E06876
S3150800074040F0010394E8070098471034AC42F6D30A
S31508000750FFF756FD788A0508988A0508202A06DBD9
S31508000760CB17203A41FA02F043EAE07306E041FA71
S3150800077002F3D040C2F1200291400843194670475F
S3150800078010B5141E73F1000408DA401C41F100018B
S3150800079092185B411A4301D120F0010010BD2DE9E2
S315080007A0F04D92469B4611B1B1FA81F202E0B0FAD9
S315080007B080F220329046FFF7D1FD04460F4640EA04
S315080007C00A0041EA0B0153465A46084313D011461C
S315080007D053EA010019D0C8F140025046FFF7CDFD93
S315080007E005460E46504659464246FFF7B7FD0843AA
S315080007F005D0012004E020463946BDE8F08D0020EA
S31508000800054346EAE0762C4337430A986305E40A2B
S31508000810A0EB08000022FD0A44EA47540A3002D534
S3150800082000200146E9E7010510196941DDE9084597
S3150800083000196941BDE8F04DA2E770B58C1810F8AB
S31508000840015B15F0070301D110F8013B2A1106D107
S3150800085010F8012B03E010F8016B01F8016B5B1E21
S31508000860F9D12B0705D40023521E0DD401F8013BFC
S31508000870FAE710F8013BCB1A921C03E013F8015B68
S3150800088001F8015B521EF9D5A142D8D3002070BDEC
S3150800089010B505F0EFFE10BD2DE9F04107460C46F0
S315080008A00026002509E036023919491B491E88B277
S315080008B000F008F80644681CC5B2A542F3DB3046CA
S315080008C0BDE8F08170B50446002605F09DFF254673
S315080008D0E11704EB11610912A02202EB4101C8B22B
S315080008E005F054FF05F0E4FFE11704EB1161091266
S315080008F0A4EB0121C8B205F049FF05F0D9FF05F0C0
S3150800090083FFA12005F042FF05F0D2FF002005F085
S3150800091007FF064605F0A2FF304670BD2DE9F041F7
S3150800092005460E461746002409E0E20026FA02F2BA
S31508000930D1B22A1990B200F006F8601CC4B2BC42C3
S31508000940F3DBBDE8F08170B504460E4605F05CFFA2
S315080009502546E11704EB11610912A02202EB4101B9
S31508000960C8B205F013FF05F0A3FFE11704EB116108
S315080009700912A4EB0121C8B205F008FF05F098FF9B
S31508000980304605F003FF05F093FF05F067FF0A20E0
S315080009900FF0F8FD70BD00BFFEE710B502200FF09E
S315080009A0FDFD10BD10B500224021124802F0D6FB0D
S315080009B01148006820F0C0000F4908600846006822
S315080009C040F040000860FFF7E8FF002208210A48C7
S315080009D002F0C4FBFFF7E1FF01224021054802F0BF
S315080009E0BDFBFFF7DAFF00224021024802F0B6FB02
S315080009F010BD0000001C02400020024000B587B070
S31508000A0000BF1648006840F0800014490860084690
S31508000A10006800F08000019000BF00BF00BF0846D4
S31508000A20006840F4807008600846006800F480702A
S31508000A30019000BF00BF402002900120039004905F
S31508000A400320059002A9064802F074FA08200290CD
S31508000A5002A9044802F06EFA07B000BD3038024019
S31508000A60001C02400020024010B500224021124816
S31508000A7002F074FB1148006820F0C0000F490860B6
S31508000A800846006840F040000860FFF786FF01222C
S31508000A9008210A4802F062FBFFF77FFF0122402186
S31508000AA0054802F05BFBFFF778FF00224021024869
S31508000AB002F054FB10BD0000001C0240002002405A
S31508000AC070B5054600241748006820F0C00015498F
S31508000AD008600846006808601E200FF05FFD0026C3
S31508000AE016E000224021104802F038FBFFF755FFB8
S31508000AF0012240210C4802F031FB6006040E082151
S31508000B00084802F023FB08B1601CC4B2701CC6B2C8
S31508000B10082EE6DB15B9FFF7A7FF01E0FFF742FF4E
S31508000B20204670BD00200240001C024070B50446F5
S31508000B301A48006820F0C00018490860084600688E
S31508000B4040F04000086000224021154802F006FBEC
S31508000B50FFF723FF00251EE0E00928B1012208213E
S31508000B600E4802F0FBFA04E0002208210B4802F0C6
S31508000B70F5FA6006040E01224021094802F0EEFA51
S31508000B80FFF70BFF00224021054802F0E7FAFFF7BE
S31508000B9004FF681CC5B2082DDEDB70BD00200240CC
S31508000BA0001C024010B51248006820F0C000104929
S31508000BB008600846006840F04000086001220821E5
S31508000BC00B4802F0CBFA012240210A4802F0C6FA85
S31508000BD01E200FF0E3FC00220821054802F0BEFAA9
S31508000BE0FFF7DBFE00224021024802F0B7FA10BDEB
S31508000BF000200240001C024010B51048006820F092
S31508000C00C0000E4908600846006840F040000860C9
S31508000C10012240210A4802F0A1FA1E200FF0BEFC6C
S31508000C2000220821054802F099FAFFF7B6FE0122CC
S31508000C300821024802F092FA10BD00000020024086
S31508000C40001C024010B500241648006820F0C000B9
S31508000C5014490860084600680860012208211148FE
S31508000C6002F07CFA012240210F4802F077FAFFF7DA
S31508000C7094FE09E0601CC4B2FA2C03DDFFF7BCFF42
S31508000C80012010BDFFF789FE0821064802F05EFA2A
S31508000C900028EFD100224021034802F05FFA002025
S31508000CA0EFE7000000200240001C024010B500BF1C
S31508000CB000BF00BF00BF00BFBFF34F8F00BF00BF1C
S31508000CC000BF00BF00BF00BFBFF36F8F00BF00BFEC
S31508000CD000BF0020114908601148006840F4003040
S31508000CE00F49086000BF00BF00BFBFF34F8F00BFAA
S31508000CF000BF00BF00BF00BF00BFBFF36F8F00BFBC
S31508000D0000BF00BF00BF0AF015FE04484C3000685B
S31508000D1040F0040001494C31086010BD50EF00E076
S31508000D2014ED00E010B50249886D01F0E3FE10BD30
S31508000D30C829022010B50249C86D01F0DBFE10BDB6
S31508000D40C82902200146087810381823B0FBF3F2A8
S31508000D500848805CC865032A05D908686FF3090046
S31508000D60001D886503E008686FF309008865886DCB
S31508000D7070470000123C0508014600208A6A8B6904
S31508000D8003BB32B1012A0CD0022A10D0032A17D18C
S31508000D9015E0CB6A03F08073B3F1807F00D10120A0
S31508000DA00FE0CB6AB3F1C07F00D1012009E0CB6A1E
S31508000DB003F08073B3F1807F00D1012001E000E0E9
S31508000DC000BF35E08B69B3F5005F1BD132B1012A4C
S31508000DD006D0022A0CD0032A12D10BE0012010E01B
S31508000DE0CB6A03F08073B3F1807F00D1012008E05D
S31508000DF0012006E0CB6AB3F1C07F00D1012000E0F4
S31508000E0000BF15E032B1012A05D0022A04D0032A10
S31508000E100CD103E000BF00BF012008E0CB6A03F055
S31508000E208073B3F1807F00D1012000E000BF00BFCE
S31508000E30704730B50468246824F4802405682C605B
S31508000E40046863608468402C04D10468A26004685E
S31508000E50E16003E00468A1600468E26030BD7047A1
S31508000E6010B54FF4004002F057F810BD30B50346F0
S31508000E7014460022DA680022D1E9000540EA052076
S31508000E800D8940EA05400D7B40EA05600243DA60B9
S31508000E90002030BD30B50346144600229A68002269
S31508000EA0D1E9000540EA05200D8940EA05400D7B99
S31508000EB040EA056002439A60002030BD10B502463C
S31508000EC0002313680A480340486840F008008C6805
S31508000ED02043CC6820430C6920434C6940EA4420EF
S31508000EE08C6940EA443003431360002010BD0000BB
S31508000EF08101F0FF70B504461D460023B5F5804F05
S31508000F0013D154F822300C480340D1E9000640EAD0
S31508000F1006108E6840EA06208E8940EA06408E69E9
S31508000F203043034344F8223003E06FF0704044F83E
S31508000F302200002070BD00000000F0CF10B5024668
S31508000F400023086852F820301B480340D1E9010401
S31508000F502043CC6820430C6920434C6920438C69A4
S31508000F602043CC6920430C6A20434C6A20438C6A90
S31508000F702043CC6A20430C6B20438C6B20434C6B7C
S31508000F80204303438868082801D143F040030868D2
S31508000F9042F82030086BB0F5801F05D1086818B1F3
S31508000FA010680C6B20431060086818B110684C6B09
S31508000FB020431060002010BD8004C0FF30B50346F2
S31508000FC014460022601C53F8202002F04042D1E962
S31508000FD0000540EA05108D6840EA05208D8940EA3B
S31508000FE00545088A401E45EA0055087D801E45EAE3
S31508000FF000608D6928430243601C43F82020186866
S3150800100000F4801038B1586820F47002088A401E2F
S3150800101042EA00525A60002030BD30B5024600232D
S3150800102000240868012816D013686FF30E03D1E967
S3150800103001052843CD6828430D6928434D6928438F
S315080010408D692843CD6928430D6A28434D6A28438C
S315080010500343136019E0136823F4F843D1E907053D
S3150800106028434D6A2843034354686FF30E04D1E9B5
S3150800107001052843CD6828430D6928434D6928434F
S315080010808D692843044313605460002030BD02462E
S31508001090506940EA4100506100207047F8B506469D
S315080010A00C461546002000900027D4E900010843A5
S315080010B0A168491E40EA4110E16840EA41200090D3
S315080010C00098306102F050F8074609E0681C38B10C
S315080010D025B102F049F8C01BA84201D90320F8BD82
S315080010E0B06900F020000028F0D100BFF7E7000043
S315080010F070B50346154600220024012D1FD09A68B4
S3150800110002F070420868401E4E68761E40EA0616CF
S315080011108868401E46EA0026C868401E46EA003629
S31508001120088A401E46EA0046888A401E46EA005655
S31508001130087E401E46EA006002439A6022E09A68EA
S3150800114011480240C868401E0603888A401E46EABF
S3150800115000500243DC6804F070440868401E4E687C
S31508001160761E40EA06168868401E46EA0026088A61
S31508001170401E46EA0046087E401E46EA00600443D2
S315080011809A60DC60002070BDFF0F0FFF00B587B0C6
S3150800119000BF4048006840F080003E4908600846A5
S315080011A0006800F08000009000BF00BF00BF08463E
S315080011B0006840F4807008600846006800F4807093
S315080011C0009000BF00BF80200190002002900120FF
S315080011D003900320049001A92F4801F0ABFE4FF4B9
S315080011E0807001900120029001A92C4801F0A2FE0E
S315080011F0FFF704FC00224FF48071284801F0AEFF87
S3150800120014200FF0BFF901221102244801F0A6FFAD
S3150800121032200FF0B7F900208DF81800012206A930
S3150800122000F03EF9012206A9A42000F039F916209B
S315080012308DF81800012206A9802000F031F90C204B
S315080012408DF81800012206A9882000F029F9022243
S3150800125006A9A12000F02AF89DF81800302803D125
S315080012609DF81900032807D09DF81900012803D016
S315080012709DF8190002280BD19DF819009DF8182031
S3150800128000EB022106A00DF0C1F9002007B000BD51
S315080012900120FBE730380240001C024000200240D3
S315080012A04354502049443A25780D0A002DE9F04167
S315080012B006460F461546FFF775FC7020FFF736FC05
S315080012C0FFF7C0FCF0B2FFF731FCFFF7BBFCFFF7F6
S315080012D069FC7120FFF72AFCFFF7B4FC00240BE039
S315080012E0691EA14201D0012100E000210846FFF74E
S315080012F0E7FB3855601CC4B2AC42F1DBFFF77CFC57
S31508001300BDE8F08171B581B00024002660480078F8
S31508001310401C5F490870084600780A2190FBF1F2E4
S3150800132001FB120018B15A4800780A287EDA012211
S3150800133001A90220FFF7BAFF9DF8040000F00F008C
S3150800134000287ED09DF8040000F00F00062878DA01
S315080013509DF8040000F00F01FF208840C5B2E8435D
S3150800136080B240F0C0004B498886002459E04948BD
S31508001370808E0121A1400840F0B3474931F8140096
S3150800138004226946FFF792FF424890F8440000F0AD
S315080013900100C0B19DF801009DF8001001F00F0191
S315080013A000EB01213B48203020F814109DF803007B
S315080013B09DF8021001F00F0100EB012035490C31B0
S315080013C021F814001DE09DF801009DF8001001F0B9
S315080013D00F0100EB012031490988081A81B22D480E
S315080013E00C3020F814109DF803009DF8021001F047
S315080013F00F0100EB012000E011E02649203121F819
S3150800140014009DF8000000F0F000802807D00021A5
S315080014102048203020F81410143820F81410601CC6
S31508001420C4B2052CA3DB01261A4800E009E080892E
S3150800143020B91848008C08B90020019000201449EA
S3150800144008709DF8040000F01F00B8B9114890F81C
S31508001450340000F0800030B10E48808E20F0800005
S315080014600C4988860AE04FF6FF700A498881088485
S31508001470084690F8340000F0E000888604480078B2
S31508001480F02802DD0A200249087030467CBD0000BB
S315080014906D020220740202205A830508BC27022026
S315080014A02DE9F04105460E4617464FF00008FFF7AE
S315080014B079FB7020FFF73AFBFFF7C4FBE8B2FFF7AA
S315080014C035FBFFF7BFFB00240BE0305DFFF72EFB73
S315080014D0FFF7B8FB8046B8F1000F00D003E0601CA8
S315080014E0C4B2BC42F1DB00BFFFF786FB4046BDE84D
S315080014F0F081000038B504464FF0AA30009009493B
S31508001500897901FB04F004236A46002109F008FEE4
S31508001510044989796143481C04236A46002109F075
S31508001520FFFD38BD242902202DE9FC4704460D4657
S3150800153000275DE04FF0000820E001A83049009040
S31508001540B1F802904FEAE97109EB91718B102C49B9
S31508001550897901FB04F02A46002109F01BFC284979
S315080015604888C11700EB9171BDF80420B2EBA10FB2
S3150800157000D007E008F101001FFA80F820488079BA
S315080015804045DADC00BF1E488079404502D100207C
S31508001590BDE8FC87204609F077F9064626B13946A4
S315080015A018A00DF033F821E0681CF8B1002001906E
S315080015B016E01349B1F802904FEAE97109EB917107
S315080015C08B100F498979BDF8042004FB01200022FD
S315080015D0114609F06FFDBDF80400401C80B2019069
S315080015E007488079BDF804108842E2DC781C87B287
S315080015F0032F9FDB214609A00DF008F80120C7E755
S31508001600242902206572726F7220657261736520E3
S31508001610626C6F636B3A25640D0A00006261642090
S31508001620626C6F636B20636865636B65643A2564F7
S315080016300D0A000038B50446002000900F49897944
S3150800164001FB04F001236A46002109F0EBFB9DF833
S315080016500000FF2810D1094989796143481C0123F4
S315080016606A46002109F0DEFB9DF80000FF2801D13B
S31508001670002038BD0120FCE70220FAE724290220D1
S315080016802DE9FE4F81460F4692461D46002400204E
S3150800169002908046019000263B488079B9FBF0F815
S315080016A039488079B9FBF0F100FB1190019000BF31
S315080016B0404600F0E1F8064633484089B04202D277
S315080016C00120BDE8FE8F00243AE00198844221D328
S315080016D005B32D484088C01BA84205D22A48408831
S315080016E0C01B1FFA80FB01E01FFA85FB264ACDF8CE
S315080016F000B0927906FB0241234A927908FB024020
S3150800170053463A4608F0CAFE02900027DA44A5EB8B
S315080017100B050AE01C4A927906FB02411A4A92799D
S3150800172008FB024008F0C2FF0290029830B130462A
S31508001730FFF7E0FE012000F029F8B9E7601C84B243
S3150800174011488079A042C0DC0F488079A04219D19F
S31508001750304600F099FA404609F096F800240CE065
S315080017600948406930F81400404504D106494969DA
S3150800177021F8146005E0601C84B203484089A04241
S31508001780EEDC00BF00209CE724290220F8B50546B8
S315080017900026002406E04FF6FF703049496921F813
S315080017A01400641C2D484089A042F4D800202B4917
S315080017B08881002433E02949897901FB04F0042350
S315080017C06A46002109F02EFB9DF80000FF2809D182
S315080017D045B1224989796143481C01236A4600219B
S315080017E009F020FB9DF80000FF2813D19DF80200A0
S315080017F09DF8031000EB012618484089B04203D92A
S315080018001649496921F8164014488089401C13492D
S31508001810888103E0214612A00CF0F8FE641C0F48EC
S315080018204089A042C7D800240BE00C48406930F82C
S3150800183014000A494989884202DB0849CC8104E038
S31508001840641C06484089A042EFD800BF0348C089F7
S31508001850642801DA0220F8BD0020FCE724290220CA
S3150800186062616420626C6F636B20696E6465783AA6
S3150800187025640D0A0000000070B5054600241848C6
S315080018804089401E17490968884204D2144840898D
S31508001890401E1449086005F001011248006800F06E
S315080018A023F80446601C90B90D484089401E0D492E
S315080018B0096888420BD90A484089401E09490860C8
S315080018C005F001010748006800F00EF80446601CA0
S315080018D010B94FF0FF3070BD024804602046FAE7A1
S315080018E02429022038020220F8B505460E460020B3
S315080018F0009000246C1C14E0601E00F00100B04249
S315080019000ED1611E094A927901FB02F004236A4648
S31508001910002109F087FA0098401C08B9601EF8BD36
S31508001920641E002CE8D1601EF9E700002429022075
S31508001930F8B5002600202D498881002417E02046A6
S31508001940FFF778FE05468DB9204608F09DFF054647
S315080019503DB1214626A00CF059FE2046FFF7CAFDE8
S3150800196004E022488089401C20498881641C1F485D
S315080019704089A042E3D81D48818921A00CF046FE83
S315080019801A488089642801DA0120F8BD1748808939
S31508001990C0EB401000EB4000642190FBF1F60020FC
S315080019A00090002415E02046FFF744FE05467DB961
S315080019B00E49897901FB04F002236A46194609F0A3
S315080019C0AFFB0098401C00900098B04200D104E09C
S315080019D0641C06484089A042E5D800BF0120FFF7ED
S315080019E0D5FE08B10220D0E70020CEE72429022040
S315080019F042616420626C6F636B3A25640D0A0000CD
S31508001A00676F6F645F626C6F636B6E756D3A2564A2
S31508001A100D0A000010B508F067FF08B1012010BDD7
S31508001A201F48406920B11E484169002021F0C4F8CA
S31508001A301B4840894100002021F0D0F81849486128
S31508001A400A4652895100164A5069FEF73BFC14486B
S31508001A50406908B90120E2E70120FFF797FE04462E
S31508001A6064B110A00CF0D2FDFFF762FF0446002C0B
S31508001A7013D012A00CF0CAFD0220D0E7084841890D
S31508001A8013A00CF0C3FD0648818917A00CF0BEFD13
S31508001A900348C18919A00CF0B9FD0020BFE7000072
S31508001AA024290220666F726D6174206E616E64204F
S31508001AB0666C6173682E2E2E0D0A0000666F726DB5
S31508001AC06174206661696C6564210D0A0000000076
S31508001AD0746F74616C20626C6F636B206E756D3AFF
S31508001AE025640D0A00000000676F6F6420626C6F42
S31508001AF0636B206E756D3A25640D0A0076616C6914
S31508001B006420626C6F636B206E756D3A25640D0AEE
S31508001B1000000000014600220648C089884202D219
S31508001B204FF6FF7070470348406930F81120104699
S31508001B30F8E70000242902202DE9FF4F83B0144658
S31508001B409A460026002500BF97E04E48408890FB3D
S31508001B50F4F04C498979484304992944B1FBF0F0DB
S31508001B6002900298FFF7D6FF8346464841895945B1
S31508001B7003D8012007B0BDE8F08F4248408890FBA3
S31508001B80F4F040498979484304992944B1FBF0F2B5
S31508001B9000FB1210604301903A4841880198B0FB57
S31508001BA0F1F0384989790BFB0108364841880198D4
S31508001BB0B0FBF1F201FB120932484088A0EB09009C
S31508001BC0B0FBF4F087B2AAEB0500B84202D2AAEB42
S31508001BD0050087B207FB04F083B21FFA89F1404675
S31508001BE0039A08F087FF0646032E39D107FB04F04F
S31508001BF083B21FFA89F14046039A08F07BFF06462E
S31508001C00032E2DD107FB04F31FFA89F14046039AE8
S31508001C10FFF736FD1B488079B8FBF0F0311F0090BE
S31508001C20FFF782FC06467EB916488079B8FBF0F0C5
S31508001C3000210090FFF778FC064612488079B8FB29
S31508001C40F0F0009008F020FE4EB10E488079B8FBFF
S31508001C50F0F00090FFF74EFC0120FFF797FD0026F5
S31508001C60042E00D100260EB1022083E7039804FB58
S31508001C7007000390781E05446D1C5545FFF465AFB3
S31508001C80002077E72429022038B50446CC200090A6
S31508001C9000250649897901FB04F001236A4619469D
S31508001CA009F03EFA0546284638BD000024290220D8
S31508001CB02DE9FF4F87B014469A464FF0000B0025D2
S31508001CC0681E029000BFA7E05648408890FBF4F0D3
S31508001CD054498979484308992944B1FBF0F005909D
S31508001CE00598FFF717FF06464E484189B14203D8C3
S31508001CF001200BB0BDE8F08F4A48408890FBF4F00D
S31508001D0048498979484308992944B1FBF0F200FB10
S31508001D10121060430390434841880398B0FBF1F0E2
S31508001D204049897906FB010004903E48418803989A
S31508001D30B0FBF1F201FB12093A484088A0EB090012
S31508001D4080B20690BDF8180090FBF4F080B20690B9
S31508001D50AAEB050087B2BDF81800874201DBBDF87B
S31508001D60187007FB04F806A81FFA89F1C8F38F0351
S31508001D704FF0FF320090049809F00CF88346BBF147
S31508001D80000F01D00220B4E7BDF81800B0EB980F99
S31508001D9009D11FFA88F31FFA89F1079A049809F0FE
S31508001DA0C3F8834601E04FF0010BBBF1000F07D1E2
S31508001DB00298B04204D03046FFF766FF8346029683
S31508001DC0BBF1000F22D01748807916494988484345
S31508001DD00399401AB0FBF4F080B20690AAEB05000E
S31508001DE087B2BDF81800874201DBBDF8187007FBFB
S31508001DF004F81FFA89F14346079A0498FFF740FC4E
S31508001E008346BBF1000F01D0032072E7781E054414
S31508001E100798404407906D1C5545FFF455AF0020C0
S31508001E2067E700002429022000B587B000BF5B4899
S31508001E30006840F00100594908600846006800F04B
S31508001E400100019000BF00BF00BF0846006840F0CF
S31508001E50020008600846006800F00200019000BF12
S31508001E6000BF00BF0846006840F004000860084646
S31508001E70006800F00400019000BF00BF00BF0846DC
S31508001E80006840F0080008600846006800F008008E
S31508001E90019000BF00BF00BF0846006840F0200060
S31508001EA008600846006800F02000019000BF00BFE7
S31508001EB000BF0846006840F08000086008460068D1
S31508001EC000F08000019000BF00BF022002900120B0
S31508001ED0039004900320059002A9314801F02AF8DE
S31508001EE001200290039004900320059002A92D4832
S31508001EF001F020F801220221294801F02FF90122D8
S31508001F001146284801F02AF94FF4005002900120A2
S31508001F10039004900320059002A9234801F00AF8CB
S31508001F2001225103204801F019F9102002900120DE
S31508001F30039004900320059002A91C4800F0FAFFBC
S31508001F4001221021194801F009F94FF48070029016
S31508001F500120039004900320059002A9124800F07E
S31508001F60E9FF01221102104801F0F8F84FF4004089
S31508001F7002900F480390022004900320059002A9BE
S31508001F80084800F0D7FF01220221282001F0CBFBE8
S31508001F90282001F0BBFB07B000BD00003038024026
S31508001FA00000024000040240000C02400008024003
S31508001FB00000111000B589B000BF4A48006840F01B
S31508001FC08000484908600846006800F080000190D3
S31508001FD000BF00BF00BF0846006840F48070086074
S31508001FE00846006800F48070019000BF00BF80209A
S31508001FF0029000200390012004900320059002A976
S31508002000394800F097FF4FF4807002900120039042
S3150800201002A9364800F08EFFFEF7F0FC00224FF4C6
S315080020208071324801F09AF80A200EF0ABFA0122C4
S3150800203011022E4801F092F80A200EF0A3FA802029
S3150800204002900020039004900320059002A92648D8
S3150800205000F070FF64200EF095FA042207A948F2F2
S31508002060401000F05BF800208DF8200007A920A09A
S315080020700CF0CCFA21A107A8FEF736F978BB0220A6
S315080020808DF81C00012207A948F2400000F01EFA4C
S31508002090012207A948F2470000F040F89DF81C0005
S315080020A060280DDA9DF81C1016A00CF0AFFA1A4835
S315080020B0808845F21051884202D1012000F0D8F9F3
S315080020C00A200EF05FFA00208DF81C00012207A9ED
S315080020D048F2400000F0FAF9002009B000BDFFE719
S315080020E00020FAE730380240001C02400020024077
S315080020F04354502049443A25730D0A003931343780
S315080021000000000044656661756C74205665723A75
S3150800211025640D0A00000000BC2702202DE9F041C5
S3150800212005460F461646FEF73DFD2820FEF7FEFC3F
S31508002130FEF788FD2812FEF7F9FCFEF783FDE8B2E4
S31508002140FEF7F4FCFEF77EFDFEF72CFD2920FEF7D0
S31508002150EDFCFEF777FD00240BE0711EA14201D0CD
S31508002160012100E000210846FEF7AAFC3855601C4C
S31508002170C4B2B442F1DBFEF73FFDBDE8F0810000D2
S3150800218071B583B000240026B5480078401CB449D0
S315080021900870084600780A2190FBF1F201FB12004C
S315080021A018B1AF4800780A2871DA012203A948F263
S315080021B04E10FFF7B3FF9DF80C0000F0800068B1E1
S315080021C09DF80C0000F00F00062807DA00200190A1
S315080021D0012201A948F24E1000F078F99DF80C008A
S315080021E000F00F00002852D09DF80C0000F00F00F8
S315080021F00628D9DA9DF80C0000F00F01FF20884068
S31508002200C0B20190974890F834509DF80400C04336
S3150800221080B240F0C0009349888608468189818249
S31508002220018C01850024C3E08E48808E0121A140DF
S31508002230084000282AD08C4931F81400042202A943
S31508002240FFF76CFF8948808845F21051884236D1DD
S31508002250844890F8440000F00100C8B19DF80800D1
S315080022609DF8091000EB012081B27E48203020F845
S3150800227014109DF80A009DF80B1000EB0120C0F51C
S31508002280487081B277480C3020F814108EE0BFE011
S315080022909DF808009DF8091000EB012081B27148ED
S315080022A00C3020F814109DF80A009DF80B1000EB6E
S315080022B0012081B26B48203020F8141076E06B4874
S315080022C0808844F24231884235D1664890F8440005
S315080022D000F00100B0B19DF808009DF8091000EB68
S315080022E0012081B25F480C3020F814109DF80A00CE
S315080022F09DF80B1000EB012081B25A48203020F8D7
S31508002300141053E09DF808009DF8091000EB012011
S3150800231081B25448203020F814109DF80A009DF820
S315080023200B1000EB0120C0F5887081B24D480C30C7
S3150800233020F814103AE04D48808844F284318842E7
S3150800234034D1484890F8440000F00100B0B19DF837
S3150800235008009DF8091000EB012081B241480C30B5
S3150800236020F814109DF80A009DF80B1000EB0120C8
S3150800237081B23C48203020F8141017E09DF8080078
S315080023809DF8091000EB012081B23648203020F86C
S3150800239014109DF80A009DF80B1000EB0120C0F5FB
S315080023A0F07081B22F480C3020F81410601CC4B2AB
S315080023B0052CFFF639AF01262A4880892B4909885A
S315080023C0884205DC2748008C2849498888421CDD54
S315080023D09DF80C0000F00F0001280ADD2148C0898D
S315080023E0204988810846408C088400201C490870CA
S315080023F00EE01C48808A1B4988810846008D08849F
S31508002400802003900846858602E00020144908705B
S315080024109DF80C0000F08F00802817D1114890F81D
S31508002420340000F0800030B10E48808E20F0800025
S315080024300C4988860AE04FF6FF700A4988810884A5
S31508002440084690F8340000F0E000888604480078D2
S31508002450F02802DD0A2002490870304604B070BD33
S315080024606E020220740202201C840508BC27022082
S3150800247038B50546002400208DF800008DF8015077
S3150800248000BF09E09DF800000F49095D0844C0B285
S315080024908DF80000601CC4B2B82CF3D39DF8000078
S315080024A0C043401CC0B28DF80000B822064948F265
S315080024B0470000F00BF80222694648F2FF0000F0D8
S315080024C005F8002038BD0000648305082DE9F041B1
S315080024D004460E4617464FF00008FEF763FB282011
S315080024E0FEF724FBFEF7AEFB2012FEF71FFBFEF7F6
S315080024F0A9FBE0B2FEF71AFBFEF7A4FB00250BE0EA
S31508002500705DFEF713FBFEF79DFB8046B8F1000FE2
S3150800251000D003E0681CC5B2BD42F1DB00BFFEF780
S315080025206BFB4046BDE8F08100B589B000BF47485F
S31508002530006840F08000454908600846006800F0D9
S315080025408000019000BF00BF00BF0846006840F445
S31508002550807008600846006800F48070019000BF2B
S3150800256000BF8020029000200390012004900320E1
S31508002570059002A9364800F0DDFC4FF48070029001
S315080025800120039002A9334800F0D4FCFEF736FA7E
S3150800259000224FF480712F4800F0E0FD0A200DF06C
S315080025A0F1FF012211022B4800F0D8FD0A200DF098
S315080025B0E9FF8020029000200390049003200590F4
S315080025C002A9234800F0B6FC64200DF0DBFF0422C4
S315080025D007A948F2401000F055F800208DF82000B1
S315080025E007A91DA00CF012F81FA107A8FDF77CFE8D
S315080025F048BB02208DF81C00012207A948F24000BA
S31508002600FFF764FF012207A948F24700FFF786FD96
S315080026109DF81C00412807DA9DF81C1014A00BF041
S31508002620F5FF012000F068F90A200DF0ABFF002045
S315080026308DF81C00012207A948F24000FFF746FF63
S31508002640002009B000BD0120FBE700003038024039
S31508002650001C0240002002404354502049443A25B9
S31508002660730D0A0D0A0000003932373100000000E8
S3150800267044656661756C74205665723A25640D0A60
S31508002680000000002DE9F04105460F461646FEF704
S3150800269089FA2820FEF74AFAFEF7D4FA2812FEF736
S315080026A045FAFEF7CFFAE8B2FEF740FAFEF7CAFA9D
S315080026B0FEF778FA2920FEF739FAFEF7C3FA00245E
S315080026C00BE0711EA14201D0012100E0002108465D
S315080026D0FEF7F6F93855601CC4B2B442F1DBFEF7D2
S315080026E08BFABDE8F081000071B583B00020019037
S315080026F000267D480078401C7B490870084600780B
S315080027000A2190FBF1F201FB120018B17648007815
S315080027100A286EDA012203A948F24E10FFF7B2FF23
S315080027209DF80C0000F0800068B19DF80C0000F0E0
S315080027300F000B2807DA00200190012201A948F2B0
S315080027404E1000F007F99DF80C0000F00F00002865
S315080027504FD09DF80C0000F00F000B28D9DA9DF831
S315080027600C0000F00F014FF6FF70884084B25F48F6
S31508002770858EE04380B240F0C0005C4988860846F2
S315080027808189C183018C41860020019053E0574816
S31508002790808E9DF8042001219140084040B3544999
S315080027A09DF8042031F81200062202A9FFF76AFFF5
S315080027B04E4890F8440000F00100D8B19DF80A0090
S315080027C09DF80B1000EB012081B2484820309DF897
S315080027D0042020F812109DF808009DF8091000EB57
S315080027E0012081B241480C309DF8042020F81210CF
S315080027F01CE051E09DF80A009DF80B1000EB012043
S31508002800C0F5487081B239480C309DF8042020F88C
S3150800281012109DF808009DF8091000EB012081B2FE
S31508002820324820309DF8042020F812109DF8040044
S31508002830401CC0B201909DF804000A28A7DB0126B7
S315080028402A4880892B490988884205DC2748008C54
S315080028502849498888421CDD9DF80C0000F00F00C5
S3150800286001280ADD2148C089204988810846408C0C
S31508002870088400201C4908700EE01C48C08B1B49C0
S3150800288088810846408E08848020039008468586FD
S3150800289002E00020144908709DF80C0000F08F0033
S315080028A0802816D1114890F8340000F0800030B125
S315080028B00E48808E20F080000C49888609E04FF685
S315080028C0FF700A49888108840846808E00F46040B3
S315080028D0888605480078F02802DD0A200249087033
S315080028E0304604B070BD00006F0202207402022058
S315080028F0E0840508BC27022038B5054600240020D8
S315080029008DF800008DF8015000BF09E09DF8000021
S315080029100F49095D0844C0B28DF80000601CC4B2B6
S31508002920B82CF3D39DF80000C043401CC0B28DF804
S315080029300000BA22064948F2470000F00BF80222C6
S31508002940694648F2FF0000F005F8002038BD00008F
S31508002950268405082DE9F04104460E4617464FF031
S315080029600008FEF71FF92820FEF7E0F8FEF76AF9D7
S315080029702012FEF7DBF8FEF765F9E0B2FEF7D6F8A7
S31508002980FEF760F900250BE0705DFEF7CFF8FEF75D
S3150800299059F98046B8F1000F00D003E0681CC5B2AB
S315080029A0BD42F1DB00BFFEF727F94046BDE8F081DE
S315080029B002490968C1F300407047000014ED00E0C1
S315080029C070B50446A56D00F0CFFB064694F83500B1
S315080029D0022808D08020606500BF002084F83400F3
S315080029E000BF012070BD2068006820F0160021682D
S315080029F008602068406920F0800021684861206CE2
S31508002A0008B9A06C28B12068006820F00800216881
S31508002A1008602068006820F00100216808600FE05F
S31508002A2000F0A2FB801B05280AD92020606500BF9C
S31508002A30002084F8340000BF032084F83500D1E76D
S31508002A402068006800F001000028E9D194F85C10BD
S31508002A503F208840A86000BF002084F8340000BFEB
S31508002A60012084F835000020BCE7014691F83500BE
S31508002A70022803D08020486501207047052081F888
S31508002A8035000868006820F001000A681060002018
S31508002A90F3E770B504460CB9012070BD94F835000B
S31508002AA0022800D1F9E72068006820F001002168B3
S31508002AB008600020216808602168486021688860ED
S31508002AC02168C8602168086121202168486120467C
S31508002AD0FEF738F9054694F85C103F208840A86050
S31508002AE00020606584F8350000BF84F8340000BF14
S31508002AF000BFD2E7F8B50446002000908D4800686C
S31508002B004FF41651B0FBF1F7A56D2E6894F85C10DA
S31508002B1008208840304098B12068006800F004001A
S31508002B2070B12068006820F004002168086094F8F5
S31508002B305C1008208840A860606D40F00100606560
S31508002B4094F85C107C488840304068B12068406939
S31508002B5000F0800040B194F85C1077488840A8607F
S31508002B60606D40F00200606594F85C107248C01C05
S31508002B708840304070B12068006800F0020048B113
S31508002B8094F85C106C48C01C8840A860606D40F0E2
S31508002B900400606594F85C1010208840304078B3D3
S31508002BA02068006800F0080050B394F85C10102004
S31508002BB08840A8602068006800F4802080B12068FA
S31508002BC0006800F4002028B9206CC8B12046216CA2
S31508002BD0884715E0A06C98B12046A16C88470FE09D
S31508002BE02068006800F4807028B92068006820F022
S31508002BF0080021680860206C10B12046216C8847BF
S31508002C0094F85C10202088403040002865D0206861
S31508002C10006800F0100000285FD094F85C102020AF
S31508002C208840A86094F83500052828D120680068EF
S31508002C3020F01600216808602068406920F08000AE
S31508002C4021684861206C08B9A06C28B12068006822
S31508002C5020F008002168086094F85C103F2088403E
S31508002C60A86000BF002084F8340000BF012084F863
S31508002C703500206D10B12046216D8847F8BD2068C3
S31508002C80006800F4802080B12068006800F4002005
S31508002C9028B9606C10B12046616C88471DE0E06B6E
S31508002CA0D8B12046E16B884717E02068006800F431
S31508002CB0807068B92068006820F0100021680860F4
S31508002CC000BF002084F8340000BF012084F83500D6
S31508002CD0E06B10B12046E16B8847606D38B3606DD4
S31508002CE000F00100F0B1052084F83500206800687E
S31508002CF020F001002168086000BF0098401C009081
S31508002D00B84200D905E02068006800F001000028F4
S31508002D10F3D100BF00BF002084F8340000BF0120B3
S31508002D2084F83500E06C10B12046E16C884700BF96
S31508002D30A4E7000044040220010080002DE9F041C8
S31508002D400446002500F010FA074614B90120BDE82C
S31508002D50F081606A00B100BF00BF002084F834002B
S31508002D6000BF022084F835002068006820F00100C2
S31508002D70216808600AE000F0F7F9C01B052805D9A4
S31508002D8020206065032084F83500E0E720680068A5
S31508002D9000F001000028EED12068056820480540AB
S31508002DA0D4E901010843E1680843216908436169D8
S31508002DB00843A1690843E1690843216A08430543B2
S31508002DC0606A042803D1D4E90B0108430543206847
S31508002DD005602068456925F00705606A0543606A4D
S31508002DE004280BD1A06A05432046FDF7C5FF28B184
S31508002DF040206065012084F83500A8E72068456111
S31508002E002046FDF79FFF064694F85C103F20884051
S31508002E10B06000206065012084F83500002096E740
S31508002E203F8010E02DE9F04704460D4616461F463A
S31508002E304FF00008D4F8589000BF94F834000128E1
S31508002E4002D10220BDE8F087012084F8340000BFD3
S31508002E5094F8350001282BD1022084F8350000208B
S31508002E6060653B46324629462046FDF7E2FF94F860
S31508002E705C103F208840C9F808002068006840F0C8
S31508002E801600216808602068406940F080002168C3
S31508002E904861206C28B12068006840F00800216865
S31508002EA008602068006840F001002168086006E0B4
S31508002EB000BF002084F8340000BF4FF002084046E7
S31508002EC0C0E731B5002400F04FF9044600BF00F012
S31508002ED04BF9001B00998842F9D338BDB0F5004F6D
S31508002EE00ED10121074A1170074A1170074991ED61
S31508002EF0000A074981ED000A0021064A116000BF51
S31508002F0000BF70472102022022020220500202203E
S31508002F10000302201C04022010B504460448006879
S31508002F20204020B1024804602046FFF7D7FF10BDB5
S31508002F30143C0140F8B502460B4600210025002442
S31508002F40002000BFE4E0012606FA01F51E6806EA3D
S31508002F500504AC4271D15E68022E02D05E68122E5C
S31508002F6013D1CF0802F1200656F827004E07F70EB0
S31508002F700F26BE40B0434F07FF0E1E69BE403043C2
S31508002F80CF0802F1200646F8270010684F000326EE
S31508002F90BE40B0431E7906F003064F00BE403043DC
S31508002FA010605E68012E08D05E68022E05D05E6845
S31508002FB0112E02D05E68122E13D190684F00032698
S31508002FC0BE40B0434F00DE68BE4030439060506854
S31508002FD001268E40B0431E79C6F300168E40304354
S31508002FE05060D0684F000326BE40B0434F009E682D
S31508002FF0BE403043D0605E6806F08056B6F1805F0A
S31508003000A8D100BF444E366846F48046424F3E601B
S315080030103E46366806F48046009600BF00BF3F4E1F
S315080030208F0856F827008E07370F0F26BE40B04385
S315080030303B4EB24202D100262EE068E0394EB2423B
S3150800304001D1012628E0384EB24201D1022623E0FA
S31508003050364EB24201D103261EE0354EB24201D1A8
S31508003060042619E0334EB24201D1052614E0324E49
S31508003070B24201D106260FE0304EB24201D10726F0
S315080030800AE02F4EB24201D1082605E02D4EB24283
S3150800309001D1092600E00A268F073F0FBE403043BC
S315080030A01E4E8F0846F82700274E3068A0435E68F4
S315080030B006F48036B6F5803F00D12043224E3060B4
S315080030C0361D3068A0435E6806F40036B6F5003F44
S315080030D000D120431C4E361D3060361D3068A04393
S315080030E05E6806F48016B6F5801F00D12043164E9A
S315080030F008363060361D3068A0435E6806F4001650
S31508003100B6F5001F00D120430F4E0C363060491C1F
S315080031101029FFF418AFF8BD4438024008380140BA
S31508003120000002400004024000080240000C024071
S31508003130001002400014024000180240001C024021
S315080031400020024000240240003C01400246136968
S315080031500B400BB1012000E0002070470AB18161E5
S3150800316001E00B048361704701480068704700005E
S315080031701C02022002480068401C0149086070478A
S315080031801C02022010B50848006840F40070064981
S315080031900860052000F006FB0F2000F007F800F095
S315080031A01BFA002010BD0000003C024070B5044622
S315080031B0074800684FF47A71B0FBF1F5284602F02B
S315080031C02FFC00222146501E00F0ADFA002070BDEB
S315080031D04404022070B504460E46154600BF94F80E
S315080031E0A000012801D1022070BD012084F8A000AA
S315080031F000BF022084F8A10005EB850101EBC5029A
S3150800320004F1380101EB820034223146FDF741F81A
S315080032102A463146204606F08FFF0120216848627B
S3150800322084F8A10000BF002084F8A00000BF00BFFA
S31508003230DAE7000070B50446002500260CB901201F
S3150800324070BD94F8A10028B9002084F8A000204693
S3150800325000F084F8022084F8A1002068806920F034
S31508003260704021688861D4E901010843E168084390
S3150800327021690843216889690843216888612068AB
S3150800328080683549084021688860A08A0504206856
S315080032908068A16929430843216888602068C06856
S315080032A02D4908402168C860A08B05042068C068BD
S315080032B0216A294308432168C860206800692649AD
S315080032C0084021680861A08C050420680069A16A85
S315080032D02943084321680861206840691E49084057
S315080032E021684861A08D050420684069216B29433F
S315080032F008432168486194F83500050294F83600B9
S3150800330006042068C06A00F07F402168C86246EA61
S31508003310050094F8341008432168C96A08432168EF
S31508003320C8622068406B40F0040021684863206842
S31508003330406B40F00200216848632068806940F0CD
S315080033400100216888610020C4F8A400012084F8DF
S31508003350A100002074E7000000F800F010B586B060
S31508003360044600BF4748006840F080604549086049
S315080033700846006800F08060009000BF00BF00BFEC
S3150800338040481438006840F400003E491439086083
S315080033900846006800F40000009000BF00BF00BFA8
S315080033A00846006840F0020008600846006800F019
S315080033B00200009000BF00BF00BF0846006840F04A
S315080033C0200008600846006800F02000009000BF52
S315080033D000BF00BF0846006840F040000860084685
S315080033E0006800F04000009000BF00BF00BF08461C
S315080033F0006840F0800008600846006800F0800019
S31508003400009000BF00BF00BF0846006840F4807007
S3150800341008600846006800F48070009000BF00BF8E
S31508003420202001900120029003900320049001A916
S315080034301548FFF77FFD4FF4806001900220029047
S3150800344000200390032004900E20059001A90F4840
S31508003450FFF770FD4FF40C60019001A90C48FFF7C7
S3150800346069FD4FF47E40019001A90A48FFF762FD05
S3150800347040F2F760019001A90748FFF75BFD06B027
S3150800348010BD000044380240000402400014024007
S3150800349000180240001C0240002002402DE9F041BD
S315080034A004460E461746984600BF94F8A000012821
S315080034B002D10220BDE8F081012084F8A00000BFF7
S315080034C0022084F8A10008EB880000EBC80104F18B
S315080034D0380000EB81052E60A86A30446860AF604A
S315080034E0E86A3844E86042462946204606F024FE43
S315080034F001202168486284F8A10000BF002084F8F2
S31508003500A00000BF00BFD5E72DE9F04105460E46ED
S315080035101746984600BF95F8A000012802D1022058
S31508003520BDE8F081012085F8A00000BF022085F8DB
S31508003530A10008EB880000EBC80105F1380000EB94
S315080035408104002020602068304460600020A0606C
S31508003550A0683844E060A662E762424621462846EB
S3150800356006F0EAFD01202968486285F8A10000BF37
S31508003570002085F8A00000BF00BFD1E74178154AB2
S3150800358011600178F9B1121D41681160017B0907C4
S31508003590C27A41EA0261827A41EAC241427B41EA41
S315080035A08241827B41EA4241C27B41EA0241427A38
S315080035B041EA0221027A41EA420102781143054AA8
S315080035C00832116005E00021024A121D1160121D21
S315080035D01160704798ED00E0704770B504460E46D6
S315080035E015460CB9012070BD94F8210028B90020B1
S315080035F084F82000204600F019F8211D2068FDF700
S315080036005DFC3146D4E90002FDF744FC2946D4E9BD
S315080036100002FDF72BFC2068006840F004002168D2
S315080036200860012084F821000020DCE710B586B088
S31508003630044600BF3148006840F001002F49086081
S315080036400846006800F00100009000BF00BF00BFF8
S315080036502A480838006840F00800284908390860F0
S315080036600846006800F00800009000BF00BF00BFD1
S315080036700846006840F0100008600846006800F038
S315080036801000009000BF00BF00BF0846006840F069
S31508003690400008600846006800F04000009000BF3F
S315080036A000BF4020019000200290012003900320D3
S315080036B0049001A91248FFF73DFC4FF400700190F1
S315080036C00220029000200390032004900C2005900D
S315080036D001A90C48FFF72EFC4DF633000190002097
S315080036E0039001A90648FFF725FC4FF4F060019006
S315080036F001A90548FFF71EFC06B010BD3838024080
S31508003700000C0240001802400010024000BF00F002
S315080037101F02012191404209920002F1E022C2F8FB
S31508003720001100BF70472DE9F05F80460D4616462A
S31508003730002707F017FD074639462A46334601F0A3
S315080037400700C0F1070ABAF1040F02D94FF0040ABC
S3150800375001E0C0F1070AD14600F1040ABAF1070FE1
S3150800376002D24FF0000A01E0A0F1030AD4464FF056
S31508003770010A0AFA09FAAAF1010A0AEA020A0AFA7F
S315080037800CFA4FF0010B0BFA0CFBABF1010B0BEA31
S31508003790030B4AEA0B042146404607F0EBFCBDE85A
S315080037A0F09F000000BF00F00702064B19684FF6AD
S315080037B0FF031940044B0B4343EA0221014B1960EE
S315080037C000BF70470CED00E00000FA0538B500248C
S315080037D000BF2048006840F080501E49086008462F
S315080037E0006800F08050009000BF00BF1A480068CB
S315080037F040F4803018490860FFF7B6FC044607E035
S31508003800FFF7B2FC001BB0F57A7F01D9032038BD5B
S315080038101148406800F48030B0F5803FF0D10E487A
S31508003820006840F400300C490860FFF79DFC044628
S3150800383007E0FFF799FC001BB0F57A7F01D9032052
S31508003840E5E70548406800F40030B0F5003FF0D1E0
S315080038500020DCE740380240007000402DE9F843BC
S3150800386004460D4616460127FFF77EFC8046A869E2
S3150800387000B100BFE86900B100BF286A00B100BF07
S3150800388000BF94F83800012802D10220BDE8F88369
S31508003890012084F8380000BF94F83900012828D19F
S315080038A00020E063022084F83900434600222021E4
S315080038B02046009607F09CFF0746DFB900222946F6
S315080038C0204607F02CFE686A78B943460122022191
S315080038D02046009607F08CFF07465FB9022021684C
S315080038E0C860012084F8390004E0012084F8390012
S315080038F000E0022700BF002084F8380000BF3846E1
S31508003900C4E70000F8B504460125FFF72DFC064676
S315080039100CB90120F8BD206A402800D000BF00BFBE
S3150800392094F83800012801D10220F3E7012084F831
S31508003930380000BF94F8390050B9002084F83800E0
S31508003940204600F04BF841F28831204600F015F980
S315080039502068006820F4F851A068401E41EA00205B
S3150800396021680860206C33460022202100902046FA
S3150800397007F03EFF054635BB2179E06840EA01605D
S31508003980E1690843216A084321680968114A114018
S31508003990084321680860208A616941EA0040A169F4
S315080039A00843216849680C4A114008432168486061
S315080039B02068006840F00100216808600020E06384
S315080039C0012084F8390000BF002084F8380000BFC1
S315080039D028469FE72FFFFF00FEF8E0FF10B586B0E8
S315080039E0044600BF2948006840F0020027490860DD
S315080039F00846006800F00200009000BF00BF00BF44
S31508003A0022480838006840F0020020490839086052
S31508003A100846006800F00200009000BF00BF00BF23
S31508003A200846006840F0200008600846006800F074
S31508003A302000009000BF00BF4020019002200290A5
S31508003A4001200390032004900A20059001A910483C
S31508003A50FFF770FA4FF4407001900020039003209E
S31508003A60049001A90B48FFF765FA04200190092084
S31508003A70059001A90648FFF75DFAC020019001A943
S31508003A800448FFF757FA06B010BD00003838024060
S31508003A9000040240001402402DE9F84F04460E4681
S31508003AA017460025FFF760FB80462068D0F8189077
S31508003AB0206800F1200A00BF94F83800012802D1D6
S31508003AC00220BDE8F88F012084F8380000BF94F87A
S31508003AD03900012849D10020E063002E3FD022207A
S31508003AE084F8390020680069401C608620680069EF
S31508003AF0401C2086E6622068406920F0406040F05D
S31508003B008060216848612068C0F8189012E0434632
S31508003B10012206212046009707F06AFE054605B1F0
S31508003B200BE09AF80010E26A501CE0621170608E91
S31508003B30401E6086608E0028E9DC00BF5DB94346FA
S31508003B40012202212046009707F052FE054615B9C4
S31508003B5002202168C860012084F8390006E0E06B7D
S31508003B6040F00800E063012500E0022500BF0020C0
S31508003B7084F8380000BF2846A3E7016470472DE99A
S31508003B80F84304460E4617460025FFF7EDFA804629
S31508003B90206800F1200900BF94F83800012802D1F6
S31508003BA00220BDE8F883012084F8380000BF94F8A5
S31508003BB03900012844D10020E063002E3AD01220B3
S31508003BC084F8390020680069401C6085206800690F
S31508003BD0401C208566622068406920F040602168A4
S31508003BE0486112E04346012204212046009707F067
S31508003BF0FFFD054605B10BE0616A481C606208785E
S31508003C0089F80000608D401E6085608D0028E9DC1B
S31508003C1000BF5DB94346012202212046009707F0FE
S31508003C20E7FD054615B902202168C860012084F819
S31508003C30390006E0E06B40F00800E063012500E08B
S31508003C40022500BF002084F8380000BF2846A8E7F0
S31508003C502DE9F8430446002600250027A846A9466C
S31508003C60207800F0010088B100BFFE48006820F403
S31508003C700000FC49086008460068616B0843F9497A
S31508003C80086000BF606B08B94FF00108206800F4AF
S31508003C900020B0F5002F13D1F2488430006820F4D4
S31508003CA04010E16B0843EF4984310860E06BB0F5DA
S31508003CB0801F01D14FF00108E06B08B94FF00109E8
S31508003CC0206800F48010B0F5801F13D1E5488430D1
S31508003CD0006820F44000216C0843E24984310860FA
S31508003CE0206CB0F5800F01D14FF00108206C08B99F
S31508003CF04FF00109206800F08070B0F1807F01D193
S31508003D004FF00108207800F02000202870D100BF6D
S31508003D10D4483830006840F08050D24938310860BD
S31508003D200846006800F08050009000BF00BFCE48EB
S31508003D30006840F48070CC490860FFF715FA06461B
S31508003D4007E0FFF711FA801B642802D90320BDE8B3
S31508003D50F883C548006800F480700028F1D0C1488F
S31508003D606830006800F4407585B3208E00F4407012
S31508003D70A8422BD0BB486830006820F44075B94883
S31508003D806830006840F48030B649683108600846F3
S31508003D90006820F48030086008460560006800F076
S31508003DA0010098B1FFF7E0F9064608E0FFF7DCF9ED
S31508003DB0801B41F28831884201D90320C7E7A94808
S31508003DC068300068C0F340000028EFD000BF208E9E
S31508003DD000F44070B0F5407F0BD1A248006820F48B
S31508003DE0F810A24A216B114008439E49086006E074
S31508003DF010E09C48006820F4F8109A490860994831
S31508003E0068300068218EC1F30B0108439549683173
S31508003E10086000BF207800F01000102810D100BFFD
S31508003E2090488430006820F080708E49843108609C
S31508003E3008460068A16B08438A498431086000BFB8
S31508003E40208800F48040B0F5804F09D18548883035
S31508003E50006820F44030616E084382498831086062
S31508003E60208800F40040B0F5004F09D17D4888301D
S31508003E70006820F44020A16E08437A49883108601A
S31508003E80206800F48030B0F5803F09D17548883045
S31508003E90006820F44010E16E0843724988310860D2
S31508003EA0206800F40030B0F5003F09D16D4888302D
S31508003EB0006820F44000216F08436A498831086089
S31508003EC0207800F04000402809D16648883000680C
S31508003ED020F00300616C0843624988310860207845
S31508003EE000F08000802809D15E488830006820F0FC
S31508003EF00C00A16C08435B4988310860208800F4EF
S31508003F008070B0F5807F09D156488830006820F067
S31508003F103000E16C0843534988310860208800F472
S31508003F200070B0F5007F09D14E488830006820F04F
S31508003F30C000216D08434B4988310860208800F489
S31508003F408060B0F5806F09D146488830006820F453
S31508003F504070616D0843434988310860208800F441
S31508003F600060B0F5006F09D13E488830006820F43B
S31508003F704060A16D08433B4988310860208800F4F9
S31508003F808050B0F5805F09D136488830006820F443
S31508003F904050E16D0843334988310860208800F4B1
S31508003FA00050B0F5005F09D12E488830006820F42B
S31508003FB04040216E08432B4988310860206800F488
S31508003FC08000B0F5800F09D126488830006820F0B7
S31508003FD08060A16F0843234988310860206800F48F
S31508003FE00010B0F5001F0FD11E488830006820F079
S31508003FF00060E16F08431B4988310860E06FB0F143
S31508004000006F01D14FF00109207800F00800082858
S3150800401001D14FF00109206800F48020B0F5802F07
S3150800402009D110488830006820F04070616F084355
S315080040300C4988310860206800F40000B0F5000FCC
S315080040400AD108488830006820F08050D4F88010DB
S315080040500843044988310860206800F08060B0F1A0
S31508004060806F05E00838024000700040FFFCFF0F33
S3150800407008D1FE48006820F00050D4F884100843A0
S31508004080FA490860206800F00060B0F1006F0AD1B4
S31508004090F648001F006820F00070D4F8881008431E
S315080040A0F249091F0860206800F08050B0F1805F6F
S315080040B00AD1EE48001F006820F08060D4F88C1002
S315080040C00843EA49091F0860B8F1010F03D02068C0
S315080040D0B0F1007F7DD1E5489038006820F0806017
S315080040E0E24990390860FFF73FF8064606E0FFF711
S315080040F03BF8801B642801D9032028E6DB48903862
S315080041000068C0F3C0600028F1D1207800F00100F3
S31508004110F0B3606BE0BBD5480C38006800F440305B
S315080041204FF4403191FAA1F1B1FA81F120FA01F583
S31508004130CE480C38006800F070604FF0706191FA54
S31508004140A1F1B1FA81F120FA01F747F6C07191FAA7
S31508004150A1F1B1FA81F1606888404FF4403191FAD3
S31508004160A1F1B1FA81F105FA01F108434FF0706146
S3150800417091FAA1F1B1FA81F107FA01F108434FF07A
S31508004180E04292FAA2F2B2FA82F2A168914000E005
S3150800419003E00843B5490C390860206800F400209C
S315080041A0B0F5002F03D1E06BB0F5801F09D0206869
S315080041B000F48010B0F5801F50D1206CB0F5800F48
S315080041C04CD1AA480C38006800F440304FF440310E
S315080041D000E0CFE091FAA1F1B1FA81F120FA01F5F8
S315080041E0A2480C38006800F0E0404FF0E04191FA30
S315080041F0A1F1B1FA81F120FA01F747F6C07191FAF7
S31508004200A1F1B1FA81F1606888404FF4403191FA22
S31508004210A1F1B1FA81F105FA01F108434FF0706294
S3150800422092FAA2F2B2FA82F2E168914008434FF09C
S31508004230E04191FAA1F1B1FA81F107FA01F10843D7
S315080042408A490C3908608948001F006820F01F0059
S31508004250616A491E08438549091F0860206800F0FD
S315080042608070B0F1807F3FD180480C38006800F03C
S3150800427070604FF0706191FAA1F1B1FA81F120FAFC
S3150800428001F57A480C38006800F0E0404FF0E0414C
S3150800429091FAA1F1B1FA81F120FA01F747F6C07156
S315080042A091FAA1F1B1FA81F1606888404FF4403281
S315080042B092FAA2F2B2FA82F22169914008434FF0CB
S315080042C0706191FAA1F1B1FA81F105FA01F1084399
S315080042D04FF0E04191FAA1F1B1FA81F107FA01F143
S315080042E0084362490C390860206800F00070B0F194
S315080042F0007F25D147F6C07191FAA1F1B1FA81F193
S31508004300606888404FF4403292FAA2F2B2FA82F21A
S315080043102169914008434FF0706292FAA2F2B2FA0C
S3150800432082F2E168914008434FF0E04292FAA2F225
S31508004330B2FA82F2A168914008434C490C390860E8
S315080043404A489038006840F08060484990390860CB
S31508004350FEF70AFF064606E0FEF706FF801B6428FE
S3150800436001D90320F3E4414890380068C0F3C060DF
S315080043700028F1D0B9F1010F69D13C48903800689E
S3150800438020F08050394990390860FEF7EDFE064660
S3150800439006E0FEF7E9FE801B642801D90320D6E46F
S315080043A0324890380068C0F340700028F1D1206880
S315080043B000F40020B0F5002F01D1E06B38B1206879
S315080043C000F48010B0F5801F4FD1206CF0BB274851
S315080043D00838006800F440304FF4403191FAA1F1F2
S315080043E0B1FA81F120FA01F520480838006800F092
S315080043F0E0404FF0E04191FAA1F1B1FA81F120FADB
S3150800440001F747F6C07191FAA1F1B1FA81F1606935
S3150800441088404FF4403191FAA1F1B1FA81F105FAD9
S3150800442001F108434FF0706292FAA2F2B2FA82F2F0
S31508004430A169914008434FF0E04191FAA1F1B1FA20
S3150800444081F107FA01F10843084901E00DE0BBE0F4
S3150800445008390860081D006820F4F851A06A401E53
S3150800446041EA00200149091F086001E0903802402E
S31508004470206800F40010B0F5001F40D1E06FB0F1DD
S31508004480006F3CD15148006800F070604FF07061D1
S3150800449091FAA1F1B1FA81F120FA01F54B480068C9
S315080044A000F0E0404FF0E04191FAA1F1B1FA81F154
S315080044B020FA01F747F6C07191FAA1F1B1FA81F134
S315080044C0606988404FF4403292FAA2F2B2FA82F258
S315080044D0216A914008434FF0706191FAA1F1B1FA4F
S315080044E081F105FA01F108434FF0E04191FAA1F193
S315080044F0B1FA81F107FA01F10843344908602078D6
S3150800450000F00800082845D13048006800F07060BF
S315080045104FF0706191FAA1F1B1FA81F120FA01F533
S315080045202A48006800F440304FF4403191FAA1F16E
S31508004530B1FA81F120FA01F747F6C07191FAA1F1B3
S31508004540B1FA81F1606988404FF4403191FAA1F1DE
S31508004550B1FA81F107FA01F108434FF0706191FA57
S31508004560A1F1B1FA81F105FA01F108434FF0E042F1
S3150800457092FAA2F2B2FA82F2E1699140084313492B
S315080045800860081D006820F44030E16A08430F49B6
S31508004590091D08600D488838006840F080500B49AE
S315080045A088390860FEF7E0FD064606E0FEF7DCFD02
S315080045B0801B642801D903209FE5044888380068D1
S315080045C0C0F340700028F1D0002096E588380240F4
S315080045D070B504460D4600266648006800F00F00D0
S315080045E0A8420ED26348006820F00F0028436149AC
S315080045F008600846006800F00F00A84201D00120B4
S3150800460070BD207800F00200022807D15A480068D9
S3150800461020F0F000A168084357490860207800F0A8
S315080046200100002860D06068012807D15248083880
S315080046300068C0F34040A0B90120E1E7606802289D
S3150800464007D14D4808380068C0F3406048B90120D2
S31508004650D6E7494808380068C0F3400008B9012081
S31508004660CEE74548006820F00300616808434249E0
S315080046700860FEF779FD06466068012810D108E053
S31508004680FEF772FD801B41F28831884201D903206A
S31508004690B6E73948006800F00C000428F0D123E09A
S315080046A06068022810D108E0FEF75EFD801B41F223
S315080046B08831884201D90320A2E72F48006800F014
S315080046C00C000828F0D10FE008E0FEF74DFD801B2E
S315080046D041F28831884201D9032091E726480068CB
S315080046E000F00C000028F0D12248006800F00F0006
S315080046F0A8420ED91F48006820F00F0028431D491C
S3150800470008600846006800F00F00A84201D00120A2
S3150800471076E7207800F00400042807D116480068D8
S3150800472020F4E050E168084313490860207800F057
S315080047300800082808D11048006820F4604021695C
S3150800474040EAC1000C49086000F04EF80A490968B9
S3150800475001F0F001F02292FAA2F2B2FA82F2D14006
S31508004760064A515CC840064908600F20FEF71EFD40
S31508004770002045E7003C0240083802402889050821
S3150800478044040220014800687047000044040220DF
S3150800479000B5FFF7F7FF0749096801F4E0514FF440
S315080047A0E05292FAA2F2B2FA82F2D140024A515C7F
S315080047B0C84000BD083802403889050800B5FFF72B
S315080047C0E1FF0749096801F460414FF4604292FA33
S315080047D0A2F2B2FA82F2D140024A515CC84000BD48
S315080047E0083802403889050870B5002100220023E0
S315080047F00020274C246804F00C0424B1042C04D0AF
S31508004800082C41D103E0234840E023483EE0204CF1
S31508004810241F246804F03F011D4C241F246804F457
S31508004820800484B11C4CB4FBF1F5194C241F246890
S3150800483047F6C076344096FAA6F6B6FA86F6F440F7
S3150800484005FB04F20FE0134CB4FBF1F5104C241FE2
S31508004850246847F6C076344096FAA6F6B6FA86F67F
S31508004860F44005FB04F20A4C241F246804F440347F
S315080048704FF4403595FAA5F5B5FA85F5EC40641C74
S315080048806300B2FBF3F001E0024800BF00BF70BD51
S31508004890083802400024F40040787D0138B5044603
S315080048A00025207800F00100002871D0FE48006835
S315080048B000F00C0004280DD0FB48006800F00C003E
S315080048C0082813D1F848001F006800F48000B0F5E6
S315080048D0800F0BD1F44808380068C0F34040002820
S315080048E069D06068002866D1012038BD00BF6068BD
S315080048F0B0F5803F08D1EC480838006840F48030AD
S31508004900E949083908602EE0606868B9E648083859
S31508004910006820F48030E4490839086008460068D1
S3150800492020F4802008601EE06068B0F5A02F0DD145
S31508004930DD480838006840F48020DB4908390860FB
S315080049400846006840F4803008600CE0D64808380D
S31508004950006820F48030D4490839086008460068A1
S3150800496020F48020086000BF606890B1FEF7FCFB69
S31508004970054606E0FEF7F8FB401B642801D903202C
S31508004980B3E7C94808380068C0F340400028F1D0AA
S3150800499011E0FEF7E9FB054606E0FEF7E5FB401BDE
S315080049A0642801D90320A0E7BF4808380068C0F387
S315080049B040400028F1D1207800F00200022873D187
S315080049C0B948006800F00C0058B1B748006800F014
S315080049D00C00082821D1B448001F006800F48000A4
S315080049E0D8B9B14808380068C0F3400020B1E0687B
S315080049F0012801D0012078E7AB480838006820F084
S31508004A00F800F82292FAA2F2B2FA82F221699140EB
S31508004A100843A5490839086046E0E06850B3A2484B
S31508004A200838006840F001009F4908390860FEF719
S31508004A309BFB054606E0FEF797FB401B022801D9BB
S31508004A40032052E7984808380068C0F34000002859
S31508004A50F1D095480838006820F0F800F82292FA54
S31508004A60A2F2B2FA82F22169914008438E490839C6
S31508004A70086019E08C480838006820F001008A4967
S31508004A8008390860FEF770FB054606E0FEF76CFB82
S31508004A90401B022801D9032027E783480838006805
S31508004AA0C0F340000028F1D1207800F0080008285B
S31508004AB036D16069D0B17C486C30006840F001009E
S31508004AC079496C310860FEF74FFB054606E0FEF7AC
S31508004AD04BFB401B022801D9032006E772486C30BD
S31508004AE00068C0F340000028F1D019E06E486C3029
S31508004AF0006820F001006C496C310860FEF734FB51
S31508004B00054606E0FEF730FB401B022801D90320C4
S31508004B10EBE665486C300068C0F340000028F1D128
S31508004B20207800F00400042871D100BF5E483830B0
S31508004B30006840F080505C493831086008460068D3
S31508004B4000F08050009000BF00BF5848006840F44D
S31508004B50807056490860FEF707FB054606E0FEF733
S31508004B6003FB401B642801D90320BEE64F480068B2
S31508004B7000F480700028F2D000BFA068012808D190
S31508004B8049486830006840F00100474968310860C4
S31508004B902DE0A06868B944486830006820F0010034
S31508004BA04149683108600846006820F0040008603A
S31508004BB01DE0A06805280DD13B486830006840F024
S31508004BC004003949683108600846006840F0010069
S31508004BD008600CE034486830006820F0010032496B
S31508004BE0683108600846006820F00400086000BFC5
S31508004BF0A068A8B1FEF7B8FA054609E0FEF7B4FAC8
S31508004C00401B41F28831884202D903206DE61BE039
S31508004C10254868300068C0F340000028EED013E04D
S31508004C20FEF7A2FA054608E0FEF79EFA401B41F297
S31508004C308831884201D9032057E61B486830006846
S31508004C40C0F340000028EFD1A06988B31648006871
S31508004C5000F00C00082873D0A069022864D1124815
S31508004C600838006820F080700F4908390860FEF798
S31508004C707BFA054606E0FEF777FA401B022801D9BB
S31508004C80032032E6084808380068C0F34060002868
S31508004C90F1D1D4E90701084347F6C07292FAA2F2A5
S31508004CA0B2FA82F2616A04E00838024000700040F5
S31508004CB058E0914008430122A16AC2EB51014FF422
S31508004CC0403292FAA2F2B2FA82F2914008434FF0C9
S31508004CD0706292FAA2F2B2FA82F2E16A914008434D
S31508004CE04FF0E04292FAA2F2B2FA82F2216B9140B8
S31508004CF008431D490860081F006840F08070091FB6
S31508004D000860FEF731FA054606E0FEF72DFA401B65
S31508004D10022801D90320E8E51348001F0068C0F3FC
S31508004D2040600028F1D01DE00F48001F006820F001
S31508004D3080700D49091F0860FEF716FA054607E058
S31508004D400EE0FEF711FA401B022801D90320CCE534
S31508004D500548001F0068C0F340600028F1D101E053
S31508004D600120C2E50020C0E50438024070B50446BB
S31508004D700D460CB9012070BD94F82C0028B9002006
S31508004D8084F82D00204600F011F8022084F82C0043
S31508004D90211D2068FCF741F92946D4E90002FCF7F1
S31508004DA0A7F9012084F82C000020E4E710B586B0A6
S31508004DB0044600BF3E48006840F001003C490860D0
S31508004DC00846006800F00100009000BF00BF00BF61
S31508004DD037480838006840F0040035490839086043
S31508004DE00846006800F00400009000BF00BF00BF3E
S31508004DF00846006840F0080008600846006800F0A9
S31508004E000800009000BF00BF00BF0846006840F0D9
S31508004E10100008600846006800F01000009000BF07
S31508004E2000BF00BF0846006840F02000086008463A
S31508004E30006800F02000009000BF00BF00BF0846D1
S31508004E40006840F0400008600846006800F040002E
S31508004E50009000BF00BF0D200190022002900120A3
S31508004E600390032004900C20059001A91148FEF731
S31508004E7061F84CF20370019001A90F48FEF75AF841
S31508004E804FF68370019001A90C48FEF753F84FF6C8
S31508004E903F00019001A90A48FEF74CF848F237107E
S31508004EA0019001A90748FEF745F806B010BD0000B5
S31508004EB03838024000080240000C02400010024048
S31508004EC0001402400018024070B504460D4694F8D6
S31508004ED02C00022800D170BD022084F82C00294637
S31508004EE02068FCF7D4F8012084F82C000020F2E7AB
S31508004EF070B504460D46164694F82C00022800D1D3
S31508004F0070BD022084F82C00324629462068FCF73A
S31508004F10C5F82868022803D1052084F82C0002E089
S31508004F20012084F82C000020EAE72DE9F047044622
S31508004F300E4600273546D4F85080D4F84890E06CE1
S31508004F4000F0FF0A07E0D4F85080D4F84890E06CE7
S31508004F5000F0FF0A6D1E08EA090020B9BAF1000F31
S31508004F6001D1002DEFD1354600E06D1E2068406B5B
S31508004F7000F4005008B1002DF7D1606D012803D167
S31508004F80204600F0D7FB07460DB907B9042740F2BB
S31508004F90FF5021688863E06C18B1E06CC0B2BDE8C8
S31508004FA0F0873846FBE72DE9F04704460E4600270A
S31508004FB03546D4F85080D4F84890E06C00F0FF0AE3
S31508004FC007E0D4F85080D4F84890E06C00F0FF0A67
S31508004FD06D1E08EA090020B9BAF1000F01D1002DAB
S31508004FE0EFD1354600E06D1E2068406B00F4805016
S31508004FF008B1002DF7D1606D032803D1204600F0D3
S3150800500099FB07460DB907B9042740F2FF502168F6
S315080050108863E06C18B1E06CC0B2BDE8F08700BFE9
S31508005020204600F008F80028FAD13846F5E7704718
S3150800503070477047704770B505460424284607F040
S3150800504032F80446042C01D1002070BDFF2C01D192
S315080050500220FAE70120F8E72DE9F041034600208F
S31508005060002293F8204081F856409C8CA1F85440C1
S315080050709C6A220E94090C70C2F383044C7002F0E9
S3150800508003048C709C6AC4F30742CA701C8DC4F36F
S3150800509007220A7193F828204A71DC6A220E4FF615
S315080050A0FF7404EA0214CC80DC6AC4F30742CC8895
S315080050B044EA1214CC8002F00F040C729C8DC4F3DF
S315080050C00722D4094C72C2F380148C72C2F34014BE
S315080050D0CC72C2F300140C7300244C731C6A14B10E
S315080050E01C6A012C4DD19407240D0C612C24E25C1A
S315080050F00C6944EA82040C611C6B220E0C6944EAB2
S3150800510092140C61C2F3C2040C7502F007044C75C4
S315080051101C6BC4F3074254098C75C2F38204CC7520
S315080051209407640F0C761C8EC4F307220C7E44EA9F
S31508005130D2140C760C69641C0025C1E912450C7E54
S31508005140D1E91267A41C012505FA04F44FEAE47CA8
S31508005150A6FB045807FB048406FB0C44C1E9125459
S315080051600D7A0124AC400C650026D1E912570C6D66
S31508005170A5FB04C807FB048405FB0644C1E912C461
S3150800518035E01C6A022C31D12C24E25C9406A40A70
S315080051900C611C6B220E0C6944EA02240C611C6B20
S315080051A0C4F307420C6914430C611C8EC4F307222E
S315080051B00C690025641C45EB050C4FF400770026A6
S315080051C0A4FB07580CFB078704FB067C4FF4806793
S315080051D02C466546B446A4FB076805FB078504FB11
S315080051E00C54C1E912647C100C6500E02920C2F356
S315080051F0801401F8194F9406640E4C703024E25C52
S315080052004C7844EAD2144C7002F07F048C705C6BC4
S31508005210220ED409CC70C2F341140C71C2F3820475
S315080052204C719407240F8C715C6BC4F307428C791C
S3150800523044EA92148C71C2F34014CC7100240C72A7
S3150800524002F001044C729C8EC4F30722D4098C72B6
S31508005250C2F38014CC72C2F340140C73C2F3001468
S315080052604C73C2F381048C7302F00304CC733424A8
S31508005270E25C54080C7401244C749C6B220ECA74AC
S3150800528019399C6BC4F307424FF6FF7404EA0225EA
S31508005290CD851C8FC4F30722CC8D1443CC8593F897
S315080052A0382015060D63DC6B220E0C6B44EA0245AA
S315080052B00D63DC6BC4F307420C6B44EA02250D63ED
S315080052C09C8FC4F307220C6B14430C633C24E25CEA
S315080052D0342462541C6C220E352462541C6CC4F3AC
S315080052E0074215068D634024E45AC4F307228C6BE3
S315080052F044EA02458D634024E25C8C6B44EA02254D
S315080053008D635C6C220E8C6B14438C635C6CC4F3EB
S3150800531007423C24645C44EA12143C256C54140786
S31508005320250DCD874424E45AC4F30722CC8F1443B1
S31508005330CC874424E25C5508402465540125412461
S315080053406554BDE8F08110B504462068406B00F44A
S31508005350807058B14FF48070216888630120A0647A
S315080053600020E064204600F0CDFA35E02068406B66
S3150800537000F0020038B1022021688863E064204604
S3150800538000F0C1FA28E02068406B00F0080040B140
S315080053900820216888630420E064204600F0B3FAF8
S315080053A01AE02068406B00F0200040B120202168F8
S315080053B088630620E064204600F0A5FA0CE0206821
S315080053C0406B00F0100038B1102021688863052072
S315080053D0E064204600F097FA2068C06B4CF23A1158
S315080053E088432168C86310BD30B58BB004460D46A6
S315080053F000200A902077204600F044F80020049008
S3150800540005900690079008907620099007A807C887
S315080054108DE80700206804A90EC906F00BFB204694
S3150800542006F0FCFE0A909DF8280018B19DF82800A1
S315080054300BB030BD204606F06BFE0A909DF828009A
S3150800544010B19DF82800F3E729462046FFF704FE29
S315080054500A909DF8280040B9B5F8540001040A4698
S315080054600023204606F0FEFF0A90D4E90412A0693C
S31508005470CDE90012029094E80F0006F0DBFA9DF8D9
S315080054802800D5E710B586B0044600BF5B4800681B
S3150800549040F40060594908600846006800F4006056
S315080054A0009000BF00BF00BF54481438006840F49D
S315080054B080005249143908600846006800F48000E4
S315080054C0009000BF00BF00BF0846006840F0040017
S315080054D008600846006800F00400009000BF00BF9E
S315080054E000BF0846006840F00800086008460068E3
S315080054F000F00800009000BF00BF4FF4F85001907C
S315080055000220029001200390032004900C200590AD
